:0D000E00554152545F696E6974204F4B00DC
:100F9200120D8E1211B612123B1211ED7BFF7A0066
:100FA200790E121202AC06AD077BFF7A00790E129F
:100FB20011D3120003120FC7120DF490010EEFF0BD
:050FC200120F5B80F03E
:0611010001500001510045
:1011ED00D281D284C280C282C283C285D2A4D2A54A
:0511FD00D2A6D2A722DA
:100BCD00E55224FE601C14602B1460342403704025
:100BDD00C280D282D283C285D2A4D2A5C2A6D2A708
:100BED00802ED280C282C283D285D2A4D2A5D2A6B3
:100BFD00C2A7801CD280C282D283C285C2A4800AC1
:100C0D00C280C282C283C285D2A4D2A5D2A6D2A7E7
:100C1D0020B70620A30375520320B70630A3037532
:100C2D00520230B70620A30375520130B70630A328
:050C3D000375520422C2
:100C4200E55224FE601F14602E14603714604224A3
:100C520004704EC280D282D283C285D2A4D2A5C2EF
:100C6200A6D2A7803CD280C282C283D285D2A4D22D
:100C7200A5D2A6C2A7802AD280C282D283C285C24E
:100C8200A4800AC280C282C283C285D2A4D2A580B5
:100C92000CC280D282C283D285D2A4C2A5D2A6D2ED
:100CA200A720B70620A30320B6047552042275526A
:020CB20003221B
:10121700D2B5E4FFFE0FBF00010EEF64964E70F5E6
:03122700C2B5222B
:1009BB00E4F53EF53DF53CF53B121217E4F58DF5EC
:1009CB008BE58DC394FA500330B4F6E58DD394FACE
:1009DB00506EE4F58DF58B20B4FDAF8DE48F3EF5B5
:1009EB003DF53CF53BAE3DAD3CAC3BFB7A01F9F83C
:1009FB001204098F3E8E3D8D3C8C3BAF8BE4FCFD8E
:100A0B00FEE53E2FF53EEE353DF53DED353CF53C37
:100A1B00EC353BF53BAF3EAE3DAD3CFCE47B11FA18
:100A2B00F9F81204098F3E8E3D8D3C8C3BE47B66BE
:100A3B007A56F9F81204948F3E8E3D8D3C8C3B22F6
:040A4B00E53EFF2263
:10105D001211271209BBEFC3940A500CC280C28231
:10106D00C283C285D2A4800AD280C282D283C285B5
:09107D00C2A4D2A5D2A6D2A7227A
:101127007FFF12124C7F0312124CE4FF12124C1273
:1011370009BB12124C7FFF12124C7FE87E037D0021
:051147007C000210AF66
:100FC700E55165506017E5516010C280C282C28347
:100FD700C285D2A4D2A5D2A6D2A7855051E5502466
:100FE700FD600A14600A24027009020BCD020C424C
:040FF70012105D2255
:101086008F4F8E4E8D4D8C4C784C74FF120528EC8C
:101096004D4E4F6013E4FAFBC3EB941AEA940450E6
:0910A600E70BBB00010A80F022F7
:101107001023005A002D00430043005A005A003CA8
:06111700005A0221000055
:1010AF008F3E8E3D8D3C8C3B783B74FF120528ECB8
:1010BF004D4E4F6013E4FAFBC3EB941AEA940450BD
:0910CF00E70BBB00010A80F022CE
:10122A005389F0438901438EC043B802D28CD2A9B4
:01123A002291
:10123B00D2AB53890F438910758DA9758B9AD28EBA
:01124B002280
:03001B00020EEBE7
:100EEB00C0E0C0D075D000C006758DA9758B9A0572
:100EFB0022E522AE217002052114C394E8EE94037F
:100F0B004010752100752200E5546004B287800201
:090F1B00D287D006D0D0D0E0321C
:100B5400464630303031303046460046463030303C
:100B64003230304646004646303030333030464628
:100B74000046463030303430304646004646303049
:100B84003030303046460046343130460073735FAF
:100B940046343130460046343230460073735F4683
:100BA400343230460046343030460073735F463486
:100BB4003030460049535F434F4E310049535F4341
:090BC4004F4E300000000000005B
:03111D000154007A
:1011B600438780759850759C70438E04438E014317
:0D11C6008E10D2ACD2AFD299C2A8C2AA221C
:0E124C00C2ACC2998F993099FDD299D2AC22D2
:1011D300ED4C60151203DEFF12124C740129F9E481
:0A11E3003AFAED1D70EA1C80E722C5
:1000260090010BE06003020105A3E070030200DF0C
:1000360024FE6033146056146079240360030202C0
:10004600E7D280C282D283C285C2A4D2A5D2A6D26A
:10005600A77BFF7A0B7954121202AC06AD077BFF21
:100066007A0B79540202B1C280D282C283D285D27F
:10007600A4C2A5D2A6D2A77BFF7A0B795F12120281
:10008600AC06AD077BFF7A0B795F0202B1D280C264
:1000960082C283D285D2A4D2A5D2A6C2A77BFF7A7A
:1000A6000B796A121202AC06AD077BFF7A0B796AEE
:1000B6000202B1C280D282D283C285D2A4D2A5C2A4
:1000C600A6D2A77BFF7A0B7975121202AC06AD0792
:1000D6007BFF7A0B79750202B1C280C282C283C2EB
:1000E60085D2A4D2A5D2A6D2A77BFF7A0B7980129D
:1000F6001202AC06AD077BFF7A0B79800202B19043
:10010600010BE0FF6401600302019E90010DE0FE19
:10011600D394B440030202E790010CE014B4080043
:1001260040030202E790013975F003A4C58325F068
:10013600C5837302015102015802016202016C0279
:10014600017602018002018A020194EE752300F510
:10015600242290010DE0752500F5262290010DE080
:10016600752700F5282290010DE0752900F52A2251
:1001760090010DE0752B00F52C2290010DE0752DF8
:1001860000F52E2290010DE0752F00F5302290012A
:100196000DE0753100F53222EF644060030202245F
:1001A60078337C00FD7BFF7A0B79C8FE7F0512034E
:1001B600B890010CE0604824FE602504600302024A
:1001C600E77BFF7A0B798B12102C7BFF7A0B7991E8
:1001D600121202AC06AD077BFF7A0B79910202B1CF
:1001E6007BFF7A0B799A12102C7BFF7A0B7991128E
:1001F6001202AC06AD077BFF7A0B79A00202B17B37
:10020600FF7A0B79A912102C7BFF7A0B79911212C7
:1002160002AC06AD077BFF7A0B79AF0202B1900103
:100226000BE0B4501DA3E0FFC3940540030202E7B0
:10023600A3E0FEC3940A40030202E78F458E4602FE
:10024600076390010BE0B4511DA3E0FFC394054082
:10025600030202E7A3E0FEC3940A40030202E78F0B
:10026600458E460208E890010BE064137073A3E024
:10027600601E24FE600E14600F1460102403705E6E
:1002860075500122755002227550032275500422C2
:1002960090010DE07018D2057BFF7A0B79B8121227
:1002A60002AC06AD077BFF7A0B79B80211D3900139
:1002B6000DE064017028C2057BFF7A0B79C012122B
:1002C60002AC06AD077BFF7A0B79C01211D3758994
:1002D60000758E0075B800C28CC2A9020003E4F551
:0202E6005022A4
:03002300020ADBF3
:100ADB00C0E0C0F0C083C082C0D075D000C000C0E1
:100AEB0001C002C003C004C005C006C00730983C5B
:100AFB00C298E554700CE599F47033755401F553B5
:100B0B00802CE599B4FF13755400E553B40306121A
:100B1B0000261211B67553008014740B2553F58201
:100B2B00E43401F583E599F005538002C299D007AF
:100B3B00D006D005D004D003D002D001D000D0D045
:090B4B00D082D083D0F0D0E0325A
:100D8E00C2ACE4F53BF53CB2A4120FFBB2A5120FB8
:100D9E00FBB2A6120FFBB2A7120FFBB287120FFB0C
:100DAE00B286120FFB053CE53C7002053BC3941264
:100DBE00E53B940040D1E4F53BF53CB2A4B2A5B2BC
:100DCE00A6B2A7B287B2867FE87E03120FFF053C5C
:100DDE00E53C7002053BC3940FE53B940040DCD22A
:060DEE00A5D2A7D2862267
:080FFB007F5E7E017D007C0099
:101003008F408E3F8D3E8C3D783D74FF120528EC5A
:101013004D4E4F6013E4FAFBC3EB941AEA94045069
:09102300E70BBB00010A80F0227A
:03112000010800C3
:100E5800E509D39401400BE50E13F50E30A10343C9
:100E68000E801509E50964017031D204D203E51436
:100E7800C39420502674C82516F582E43400F583FF
:100E8800E50EF00516E516D3941F4003E4F51605A4
:0C0E980014E514D39420400375142022AC
:100EA400E50A601CB40B04C2A08012E50AD39402C4
:100EB4004009E50F13F50F92A08002D2A0150A2273
:100EC400E515D39400401F151574EB2517F582E43E
:100ED4003400F583E0F50F0517E517C394204003AC
:070EE400E4F517750A0B226B
:03000B00020D25BE
:100D2500C0E0C0F0C083C082C0D075D01830050EB9
:100D350012122A3001051210D88003120546E50962
:100D4500701620A10B200308300405750909F51359
:100D5500A2039204A2A192030513C3E51364809430
:100D650083400AE5096006751300120E580512C383
:100D7500E512648094834006751200120EA4D0D04B
:090D8500D082D083D0F0D0E0321E
:100F2400758CC0758AC0D28CE4F516F514F517F5E6
:100F340015F50AF5095389F0438902D2A1D204D2E6
:100F440003D2A0F50BF50CF510F511D2B9D2AFD23E
:070F5400A943A882D28C2200
:06000300120F24D2AF220F
:100F5B00E515C3942050F974EB250CF582E43400AD
:100F6B00F583EFF0050CE50C7002050BD3941FE530
:100F7B000B94004005E4F50BF50C0515E515D39422
:070F8B002040037515202230
:10102C008B388A39893A121202AD07AC06ED4C6046
:10103C001FAB38AA39A93A1203DEFF120F5B7401F9
:10104C00253AF53AE43539F539ED1D70E01C80DDB3
:01105C002271
:100CB4009000E8E0FF64307061A3E024D0604A242F
:100CC400FE601614602114602F24037053D280C276
:100CD40082D283C285C2A4803AC280D282C283D225
:100CE40085D2A4C2A5802ED280C282C283D285D2EC
:100CF400A4D2A5D2A6C2A722C280D282D283C285A0
:100D0400D2A4D2A5C2A6D2A722C280C282C283C262
:100D140085D2A4D2A5D2A6D2A722EFB43302D2059B
:010D240022AC
:100DF400E4FEE51460FC74C82511F582E43400F5C2
:100E040083E0FEE508700CEE64467029750801F570
:100E14000D8022BE4610E4F508E50DB40303120C60
:100E2400B4E4F50D800F74E8250DF582E43400F583
:100E340083EEF0050DC3E511941FE5109400500AEC
:100E44000511E511700905108005E4F510F511157B
:040E540014AF0622AF
:0311230001550073
:10054600E555B410004003020758900557F82828CF
:10055600730205870205A50205C20205E00205FD34
:1005660002061B02063802065602067302069102AE
:1005760006AE0206CC0206E80207050207210207BC
:100586003EAE23AF247C007DF51203F7C374CD9FE6
:10059600FB74D49EF58CAF038F8AD290020758AEB7
:1005A60023AF247C007DF51203F7EF2433FBEE34F2
:1005B60053F58CAF038F8AC290020758AE25AF263B
:1005C6007C007DF51203F7C374CD9FFB74D49EF5B2
:1005D6008CAF038F8AD291020758AE25AF267C00D6
:1005E6007DF51203F7EF2433FBEE3453F58CAF039E
:1005F6008F8AC291020758AE27AF287C007DF5127C
:1006060003F7C374CD9FFB74D49EF58CAF038F8A1A
:10061600D292020758AE27AF287C007DF51203F769
:10062600EF2433FBEE3453F58CAF038F8AC292026C
:100636000758AE29AF2A7C007DF51203F7C374CDA7
:100646009FFB74D49EF58CAF038F8AD29302075812
:10065600AE29AF2A7C007DF51203F7EF2433FBEEBB
:100666003453F58CAF038F8AC293020758AE2BAF73
:100676002C7C007DF51203F7C374CD9FFB74D49ECA
:10068600F58CAF038F8AD294020758AE2BAF2C7C21
:10069600007DF51203F7EF2433FBEE3453F58CAFF0
:1006A600038F8AC294020758AE2DAF2E7C007DF5CB
:1006B6001203F7C374CD9FFB74D49EF58CAF038FE2
:1006C6008AD295020758AE2DAF2E7C007DF5120317
:1006D600F7EF2433FBEE3453F58CAF038F8AC295C4
:1006E6008070AE2FAF307C007DF51203F7C374CD5A
:1006F6009FFB74D49EF58CAF038F8AD2968053AE3F
:100706002FAF307C007DF51203F7EF2433FBEE3478
:1007160053F58CAF038F8AC2968037AE31AF327CE9
:10072600007DF51203F7C374CD9FFB74D49EF58C40
:10073600AF038F8AD297801AAE31AF327C007DF537
:100746001203F7EF2433FBEE3453F58CAF038F8A95
:0C075600C2970555E555B41003E4F555B5
:010762002274
:10076300D2A4D2A5D2A6D2A7D287D286C200C2A2D1
:10077300C2A4D2A5E4F549F54AF54BD2B220B2FDA5
:10078300D201538EBFE4F58DF58B758CA9758A9ACA
:10079300C3E54B94C8E54A94005056E4F58DF58BB8
:1007A30030B2FDAF49054974002FF582E43400F5FA
:1007B30083E58BF0AF49054974002FF582E43400DB
:1007C300F583E58DF0E4F58DF58B20B2FDAF49059A
:1007D3004974002FF582E43400F583E58BF0AF49CB
:1007E300054974002FF582E43400F583E58DF0802C
:1007F3009FE4F549E549C394C8400302089E740188
:100803002549F582E43400F583E0FE74002549F5BB
:1008130082E43400F583E07C002400FFEC3ECF2427
:100823004CCF34FF7541008F42F54475430074008B
:100833002549F582E43400F583EFF074012549F589
:1008430082E43400F583E544F074032549F582E43A
:100853003400F583E0FE74022549F582E43400F5A3
:1008630083E02400FFEC3ECF248CCF34007541009D
:100873008F42F54475430074022549F582E4340040
:10088300F583EFF074032549F582E43400F583E53D
:1008930044F074042549F5490207F7E54575F00A64
:1008A300A47C002546FFEF75480025E0F547AF48D7
:1008B300FE121194E4F5497E00E5482549FFEE3523
:1008C30047FE74002549F582E43400F583E0FD1208
:1008D30011700549E549C394C840DCD2A4C2A5C23E
:0508E30001438E4022DC
:1008E800D2A7C287D286D201538EBFD200E5457502
:1008F800F00AA47C002546FFEF75480025E0F5477F
:10090800E4F5497E00E5482549FFEE3547FE12111A
:100918004C74002549F582E43400F583EFF005496D
:10092800E549C394C840DC758CFF758A05E4F54930
:10093800F54AF54BC3E54B9460E54A943B5068E4AF
:10094800F58DF58B74002549F582E43400F583E0D4
:10095800FFE58BC39F401374012549F582E43400F9
:10096800F583E0FFE58DC39F5004D20280D6054988
:100978000549E4F58DF58B74002549F582E43400CA
:10098800F583E0FFE58BC39F401374012549F58289
:10099800E43400F583E0FFE58DC39F5004C2028074
:1009A800D605490549808DC201438E40C2A7D2872A
:0309B800C28622D2
:1010D80020000F758CA9758A9A054BE54B70190588
:1010E8004A22758CFF758A05054BE54B7002054A47
:0910F800300203B2A222C2A222BE
:10114C00AD07AC068CC3EDF5C453C5F843C50153CC
:10115C00C71843C70243C78075C65A75C6A553C77F
:04116C007FAFC2226D
:10117000AB07AA068AC3EBF5C453C5F843C5028D75
:10118000C253C71843C70243C78075C65A75C6A560
:0411900053C77F22A0
:10119400AD07AC068CC3EDF5C453C5F843C5035382
:1011A400C71843C70143C78075C65A75C6A553C738
:0211B4007F2298
:03000000020A4FA2
:0C0A4F00787FE4F6D8FD758155020A9608
:1002E800E709F608DFFA8046E709F208DFFA803EF8
:1002F80088828C83E709F0A3DFFA8032E309F608E5
:10030800DFFA8078E309F208DFFA807088828C834C
:10031800E309F0A3DFFA806489828A83E0A3F60800
:10032800DFFA805889828A83E0A3F208DFFA804CDA
:1003380080D280FA80C680D4806980F280338010B1
:1003480080A680EA809A80A880DA80E280CA80331A
:1003580089828A83ECFAE493A3C8C582C8CCC58392
:10036800CCF0A3C8C582C8CCC583CCDFE9DEE78062
:100378000D89828A83E493A3F608DFF9ECFAA9F0E1
:10038800EDFB2289828A83ECFAE0A3C8C582C8CC37
:10039800C583CCF0A3C8C582C8CCC583CCDFEADE50
:1003A800E880DB89828A83E493A3F208DFF980CCB2
:1003B80088F0EF60010E4E60C388F0ED2402B404AB
:1003C8000050B9F582EB2402B4040050AF23234552
:0603D8008223900338733C
:1003DE00BB010689828A83E0225002E722BBFE021D
:0903EE00E32289828A83E4932250
:1003F700EF8DF0A4A8F0CF8CF0A428CE8DF0A42E1A
:02040700FE22D3
:10040900E88FF0A4CC8BF0A42CFCE98EF0A42CFC92
:100419008AF0EDA42CFCEA8EF0A4CDA8F08BF0A410
:100429002DCC3825F0FDE98FF0A42CCD35F0FCEB6F
:100439008EF0A4FEA9F0EB8FF0A4CFC5F02ECD3934
:0F044900FEE43CFCEAA42DCE35F0FDE43CFC22A1
:1004580075F008758200EF2FFFEE33FECD33CDCC5B
:1004680033CCC58233C5829BED9AEC99E5829840DE
:100478000CF582EE9BFEED9AFDEC99FC0FD5F0D6BB
:10048800E4CEFBE4CDFAE4CCF9A88222B800C1B9E5
:100498000059BA002DEC8BF084CFCECDFCE5F0CB23
:1004A800F97818EF2FFFEE33FEED33FDEC33FCEB5C
:1004B80033FB10D703994004EB99FB0FD8E5E4F917
:1004C800FA227818EF2FFFEE33FEED33FDEC33FC04
:1004D800C933C910D7059BE99A4007EC9BFCE99AF8
:1004E800F90FD8E0E4C9FAE4CCFB2275F010EF2F3D
:1004F800FFEE33FEED33FDCC33CCC833C810D7073D
:100508009BEC9AE899400AED9BFDEC9AFCE899F877
:0E0518000FD5F0DAE4CDFBE4CCFAE4C8F9220A
:100526007401FF3395E0FEFDFC080808E6CF2FF6C0
:1005360018E6CE3EF618E6CD3DF618E6CC3CF62299
:10120200E4FFFE1203DE600C0FEF70010E09E970BD
:05121200F20A80EF224A
:100A5B00020F92E493A3F8E493A34003F68001F210
:100A6B0008DFF48029E493A3F85407240CC8C3339C
:100A7B00C4540F4420C8834004F456800146F6DF6B
:100A8B00E4800B0102040810204080901101E47EE9
:100A9B00019360BCA3FF543F30E509541FFEE49360
:100AAB00A360010ECF54C025E060A840B8E493A327
:100ABB00FAE493A3F8E493A3C8C582C8CAC583CA52
:100ACB00F0A3C8C582C8CAC583CADFE9DEE780BE0A
:0111260000C8
:00000001FF
