:100EFB00554152545F696E6974204F4B00736F6696
:0F0F0B00745F554152545F696E6974204F4B00FB
:100C0500120A8E120F1A120FA4120FB5120F677B5C
:100C1500FF7A0E79FB120F7CAD077BFF7A0E79FB0D
:100C2500120F371200037BFF7A0F7908120F7CAD84
:100C3500077BFF7A0F7908120F37120D3D120B57FC
:0A0C450090010EEFF0120D0680F092
:060E460001480001490013
:100F6700D281D284C280C282C283C285D2A4D2A5D2
:050F7700D2A6D2A72262
:10093E00E54A24FE601C14602B14603424037040BE
:10094E00C280D282D283C285D2A4D2A5C2A6D2A799
:10095E00802ED280C282C283D285D2A4D2A5D2A644
:10096E00C2A7801CD280C282D283C285C2A4800A52
:10097E00C280C282C283C285D2A4D2A5D2A6D2A779
:10098E0020B70620A303754A0320B70630A30375CC
:10099E004A0230B70620A303754A0130B70630A3CA
:0509AE0003754A04225C
:1009B300E54A24FE601F14602E146037146042243D
:1009C30004704EC280D282D283C285D2A4D2A5C281
:1009D300A6D2A7803CD280C282C283D285D2A4D2BF
:1009E300A5D2A6C2A7802AD280C282D283C285C2E0
:1009F300A4800AC280C282C283C285D2A4D2A58047
:100A03000CC280D282C283D285D2A4C2A5D2A6D27E
:100A1300A720B70620A30320B604754A0422754A0B
:020A23000322AC
:100F9100D2B5E4FFFE0FBF00010EEF64964E70F56F
:030FA100C2B522B4
:1007A500E4F541F540F53FF53E120F91E4F58DF581
:1007B5008BE58DC394FA500330B4F6E58DD394FAE6
:1007C500506EE4F58DF58B20B4FDAF8DE48F41F5CA
:1007D50040F53FF53EAE40AD3FAC3EFB7A01F9F842
:1007E5001205958F418E408D3F8C3EAF8BE4FCFD0D
:1007F500FEE5412FF541EE3540F540ED353FF53F3E
:10080500EC353EF53EAF41AE40AD3FFCE47B11FA21
:10081500F9F81205958F418E408D3F8C3EE47B663D
:100825007A56F9F81206208F418E408D3F8C3E2274
:04083500E541FF2278
:100DA200120E6C1207A5EFC3940A500CC280C282C5
:100DB200C283C285D2A4800AD280C282D283C28573
:090DC200C2A4D2A5D2A6D2A72238
:100E6C007FFF120FC67F03120FC6E4FF120FC612CC
:100E7C0007A5120FC67FFF120FC67FE87E037D0009
:050E8C007C00020DF4E2
:100D3D00E54965486017E5496010C280C282C283EB
:100D4D00C285D2A4D2A5D2A6D2A7854849E548240A
:100D5D00FD600A14600A2402700902093E0209B3FB
:040D6D00120DA2229F
:100DCB008F478E468D458C44784474FF1206B4ECE5
:100DDB004D4E4F6013E4FAFBC3EB941AEA940450A4
:090DEB00E70BBB00010A80F022B5
:100E4C001023005A002D00430043005A005A003C66
:060E5C00005A0221000013
:100DF4008F418E408D3F8C3E783E74FF1206B4ECDA
:100E04004D4E4F6013E4FAFBC3EB941AEA9404507A
:090E1400E70BBB00010A80F0228B
:100FA4005389F0438901438EC043B802D28CD2A93D
:010FB400221A
:100FB500D2AB53890F438910758DA9758B9AD28E43
:010FC5002209
:03001B00020C963E
:100C9600C0E0C0D075D000C006758DA9758B9A05C9
:100CA60022E522AE217002052114C394E8EE9403D6
:100CB6004010752100752200E54C6004B287800261
:090CC600D287D006D0D0D0E03274
:100F5100464630303031303046460046463030303B
:060F61003230304646006C
:030E6200014C0040
:100F1A00438780759850759C70438E04438E0143B5
:0D0F2A008E10D2ACD2AFD299C2A8C2AA22BA
:0E0FC600C2ACC2998F993099FDD299D2AC225B
:100F3700ED4C601512056AFF120FC6740129F9E41A
:0A0F47003AFAED1D70EA1C80E72263
:1002430090010BE060030202E2A3E070030202D11B
:1002530024FE6032146055146063240360030203B8
:10026300E4D280C282D283C285C2A4D2A5D2A6D24E
:10027300A77BFF7A0F7951120F7CAC06AD077BFF8A
:100283007A0F79518023C280D282C283D285D2A4CD
:10029300C2A5D2A6D2A77BFF7A0F795C120F7CACE2
:1002A30006AD077BFF7A0F795C020F37D280C282DB
:1002B300C283D285D2A4D2A5D2A6C2A722C280D29B
:1002C30082D283C285D2A4D2A5C2A6D2A722C280DB
:1002D300C282C283C285D2A4D2A5D2A6D2A72290BB
:1002E300010BE0FF6401600302037B90010DE0FE5C
:1002F300D394B440030203E490010CE014B4080067
:1003030040030203E490031675F003A4C58325F0AC
:10031300C5837302032E02033502033F020349021E
:10032300035302035D020367020371EE752300F5B5
:10033300242290010DE0752500F5262290010DE0A1
:10034300752700F5282290010DE0752900F52A2272
:1003530090010DE0752B00F52C2290010DE0752D19
:1003630000F52E2290010DE0752F00F5302290014B
:100373000DE0753100F53222EFB4501990010CE015
:10038300FFC39405505BA3E0FEC3940A50538F3719
:100393008E380203E590010BE0B45117A3E0FFC3CD
:1003A3009405503DA3E0FEC3940A50358F378E3831
:1003B3000206D290010BE0B41327A3E0601E24FED3
:1003C300600E14600F14601024037012754801222C
:1003D3007548022275480322754804228000E4F51B
:0203E3004822AE
:030023000208C50B
:1008C500C0E0C0F0C083C082C0D075D000C000C0F9
:1008D50001C002C003C004C005C006C00730983C73
:1008E500C298E54C700CE599F47033754C01F54BE5
:1008F500802CE599B4FF13754C00E54BB403061243
:100905000243120F1A754B008014740B254BF582A8
:10091500E43401F583E599F0054B8002C299D007CF
:10092500D006D005D004D003D002D001D000D0D05D
:09093500D082D083D0F0D0E03272
:030E650001080081
:100BB900E509D39401400BE50E13F50E30A103436B
:100BC9000E801509E50964017031D204D203E514D8
:100BD900C39420502674C82516F582E43400F583A1
:100BE900E50EF00516E516D3941F4003E4F5160546
:0C0BF90014E514D394204003751420224E
:100C4F00E50A601CB40B04C2A08012E50AD394021B
:100C5F004009E50F13F50F92A08002D2A0150A22CA
:100C6F00E515D39400401F151574EB2517F582E495
:100C7F003400F583E0F50F0517E517C39420400303
:070C8F00E4F517750A0B22C2
:03000B00020AF4F2
:100AF400C0E0C0F0C083C082C0D075D018300105FA
:100B0400120E1D8003120026E509701620A10B2089
:100B14000308300405750909F513A2039204A2A180
:100B240092030513C3E51364809483400AE50960C6
:100B340006751300120BB90512C3E5126480948381
:100B44004006751200120C4FD0D0D082D083D0F062
:030B5400D0E032BC
:100CCF00758CC0758AC0D28CE4F516F514F517F53E
:100CDF0015F50AF5095389F0438902D2A1D204D23E
:100CEF0003D2A0F50BF50CF510F511D2B9D2AFD296
:070CFF00A943A882D28C2258
:06000300120CCFD2AF2267
:100D0600E515C3942050F974EB250CF582E4340004
:100D1600F583EFF0050CE50C7002050BD3941FE587
:100D26000B94004005E4F50BF50C0515E515D39479
:070D36002040037515202287
:100A25009000E8E064307060A3E024D0604A24FEC2
:100A3500601614602114602F2403704CD280C2828A
:100A4500D283C285C2A4803AC280D282C283D285B3
:100A5500D2A4C2A5802ED280C282C283D285D2A45E
:100A6500D2A5D2A6C2A722C280D282D283C285D203
:100A7500A4D2A5C2A6D2A722C280C282C283C28541
:090A8500D2A4D2A5D2A6D2A72268
:100B5700E4FFE51460FC74C82511F582E43400F560
:100B670083E0FFE508700CEF64467029750801F50E
:100B77000D8022BF4610E4F508E50DB40303120A01
:100B870025E4F50D800F74E8250DF582E43400F5B2
:100B970083EFF0050DC3E511941FE5109400500A8B
:100BA7000511E511700905108005E4F510F511151B
:020BB700142206
:100A8E00C2ACE4F53EF53FB2A4120D71B2A5120D43
:100A9E0071B2A6120D71B2A7120D71B287120D713D
:100AAE00B286120D71053FE53F7002053EC39412EA
:100ABE00E53E940040D1E4F53EF53FB2A4B2A5B2B6
:100ACE00A6B2A7B287B2867FE87E03120D75053FE8
:100ADE00E53F7002053EC3940FE53E940040DCD224
:060AEE00A5D2A7D286226A
:080D71007F5E7E017D007C0025
:100D79008F438E428D418C40784074FF1206B4EC4B
:100D89004D4E4F6013E4FAFBC3EB941AEA940450F6
:090D9900E70BBB00010A80F02207
:030E6800014D0039
:10002600E54DB410004003020238900037F8282846
:10003600730200670200850200A20200C00200DD12
:100046000200FB020118020136020153020171028D
:10005600018E0201AC0201C80201E50202010202A0
:100066001EAE23AF247C007DF5120583C374CD9F9D
:10007600FB74D49EF58CAF038F8AD290020238AE01
:1000860023AF247C007DF5120583EF2433FBEE3489
:1000960053F58CAF038F8AC290020238AE25AF2685
:1000A6007C007DF5120583C374CD9FFB74D49EF549
:1000B6008CAF038F8AD291020238AE25AF267C0020
:1000C6007DF5120583EF2433FBEE3453F58CAF0335
:1000D6008F8AC291020238AE27AF287C007DF512C6
:1000E6000583C374CD9FFB74D49EF58CAF038F8AB2
:1000F600D292020238AE27AF287C007DF512058326
:10010600EF2433FBEE3453F58CAF038F8AC2920291
:100116000238AE29AF2A7C007DF5120583C374CD63
:100126009FFB74D49EF58CAF038F8AD2930202385C
:10013600AE29AF2A7C007DF5120583EF2433FBEE52
:100146003453F58CAF038F8AC293020238AE2BAFBD
:100156002C7C007DF5120583C374CD9FFB74D49E61
:10016600F58CAF038F8AD294020238AE2BAF2C7C6B
:10017600007DF5120583EF2433FBEE3453F58CAF87
:10018600038F8AC294020238AE2DAF2E7C007DF515
:10019600120583C374CD9FFB74D49EF58CAF038F79
:1001A6008AD295020238AE2DAF2E7C007DF512055F
:1001B60083EF2433FBEE3453F58CAF038F8AC2955D
:1001C6008070AE2FAF307C007DF5120583C374CDF1
:1001D6009FFB74D49EF58CAF038F8AD2968053AE64
:1001E6002FAF307C007DF5120583EF2433FBEE3410
:1001F60053F58CAF038F8AC2968037AE31AF327C0F
:10020600007DF5120583C374CD9FFB74D49EF58CD7
:10021600AF038F8AD297801AAE31AF327C007DF55C
:10022600120583EF2433FBEE3453F58CAF038F8A2C
:0C023600C297054DE54DB41003E4F54DF2
:010242002299
:1003E500D2A4D2A5D2A6D2A7D287D286C200C2A253
:1003F500C2A4D2A5E4F53BF53CF53DD2B220B2FD51
:10040500D201538EBFE4F58DF58B758CA9758A9A4B
:10041500C3E53D94C8E53C94005056E4F58DF58B55
:1004250030B2FDAF3B053B74002FF582E43400F597
:1004350083E58BF0AF3B053B74002FF582E4340078
:10044500F583E58DF0E4F58DF58B20B2FDAF3B0529
:100455003B74002FF582E43400F583E58BF0AF3B68
:10046500053B74002FF582E43400F583E58DF080BB
:100475009FE4F53BE53BC394C840030205207401A6
:10048500253BF582E43400F583E0FE7400253BF559
:1004950082E43400F583E07C002400FFEC3ECF24A9
:1004A5004CCF34FF7533008F34F536753500740045
:1004B500253BF582E43400F583EFF07401253BF527
:1004C50082E43400F583E536F07403253BF582E4D8
:1004D5003400F583E0FE7402253BF582E43400F533
:1004E50083E02400FFEC3ECF248CCF34007533002D
:1004F5008F34F5367535007402253BF582E43400FA
:10050500F583EFF07403253BF582E43400F583E5CC
:1005150036F07404253BF53B020479E53775F00A9E
:10052500A47C002538FFEF753A0025E0F539AF3A90
:10053500FE120ED9E4F53B7E00E53A253BFFEE358C
:1005450039FE7400253BF582E43400F583E0FD12A5
:100555000EB5053BE53BC394C840DCD2A4C2A5C299
:0505650001438E40225D
:1006D200D2A7C287D286D201538EBFD200E5377528
:1006E200F00AA47C002538FFEF753A0025E0F539C1
:1006F200E4F53B7E00E53A253BFFEE3539FE120E6E
:10070200917400253BF582E43400F583EFF0053B5C
:10071200E53BC394C840DC758CFF758A05E4F53B64
:10072200F53CF53DC3E53D9460E53C943B5068E4FF
:10073200F58DF58B7400253BF582E43400F583E0FA
:10074200FFE58BC39F40137401253BF582E434001F
:10075200F583E0FFE58DC39F5004D20280D6053BAE
:10076200053BE4F58DF58B7400253BF582E43400FE
:10077200F583E0FFE58BC39F40137401253BF582AF
:10078200E43400F583E0FFE58DC39F5004C202808C
:10079200D6053B053B808DC201438E40C2A7D2875E
:0307A200C28622EA
:100E1D0020000F758CA9758A9A053DE53D70190561
:100E2D003C22758CFF758A05053DE53D7002053C3C
:090E3D00300203B2A222C2A2227B
:100E9100AD07AC068CC3EDF5C453C5F843C501538A
:100EA100C71843C70243C78075C65A75C6A553C73D
:040EB1007FAFC2222B
:100EB500AB07AA068AC3EBF5C453C5F843C5028D33
:100EC500C253C71843C70243C78075C65A75C6A51E
:040ED50053C77F225E
:100ED900AD07AC068CC3EDF5C453C5F843C5035340
:100EE900C71843C70143C78075C65A75C6A553C7F6
:020EF9007F2256
:03000000020839BA
:0C083900787FE4F6D8FD75814D02088040
:10056A00BB010689828A83E0225002E722BBFE028F
:09057A00E32289828A83E49322C2
:10058300EF8DF0A4A8F0CF8CF0A428CE8DF0A42E8C
:02059300FE2246
:10059500E88FF0A4CC8BF0A42CFCE98EF0A42CFC05
:1005A5008AF0EDA42CFCEA8EF0A4CDA8F08BF0A483
:1005B5002DCC3825F0FDE98FF0A42CCD35F0FCEBE2
:1005C5008EF0A4FEA9F0EB8FF0A4CFC5F02ECD39A7
:0F05D500FEE43CFCEAA42DCE35F0FDE43CFC2214
:1005E40075F008758200EF2FFFEE33FECD33CDCCCE
:1005F40033CCC58233C5829BED9AEC99E582984051
:100604000CF582EE9BFEED9AFDEC99FC0FD5F0D62D
:10061400E4CEFBE4CDFAE4CCF9A88222B800C1B957
:100624000059BA002DEC8BF084CFCECDFCE5F0CB95
:10063400F97818EF2FFFEE33FEED33FDEC33FCEBCE
:1006440033FB10D703994004EB99FB0FD8E5E4F989
:10065400FA227818EF2FFFEE33FEED33FDEC33FC76
:10066400C933C910D7059BE99A4007EC9BFCE99A6A
:10067400F90FD8E0E4C9FAE4CCFB2275F010EF2FAF
:10068400FFEE33FEED33FDCC33CCC833C810D707AF
:100694009BEC9AE899400AED9BFDEC9AFCE899F8EA
:0E06A4000FD5F0DAE4CDFBE4CCFAE4C8F9227D
:1006B2007401FF3395E0FEFDFC080808E6CF2FF633
:1006C20018E6CE3EF618E6CD3DF618E6CC3CF6220C
:100F7C00E4FFFE12056A600C0FEF70010E09E970B8
:050F8C00F20A80EF22D3
:10084500020C05E493A3F8E493A34003F68001F2B8
:1008550008DFF48029E493A3F85407240CC8C333B4
:10086500C4540F4420C8834004F456800146F6DF83
:10087500E4800B0102040810204080900E46E47EBF
:10088500019360BCA3FF543F30E509541FFEE49378
:10089500A360010ECF54C025E060A840B8E493A33F
:1008A500FAE493A3F8E493A3C8C582C8CAC583CA6A
:1008B500F0A3C8C582C8CAC583CADFE9DEE780BE22
:010E6B000086
:00000001FF
