:1015A1001215171215B21215C312156412132080E9
:0115B100FB3E
:0614D200013800013900A1
:10156400D281D284C280C282C283C285D2A4D2A5CF
:05157400D2A6D2A7225F
:10109B00E53A24FE601C14602B146034240370406A
:1010AB00C280D282D283C285D2A4D2A5C2A6D2A735
:1010BB00802ED280C282C283D285D2A4D2A5D2A6E0
:1010CB00C2A7801CD280C282D283C285C2A4800AEE
:1010DB00C280C282C283C285D2A4D2A5D2A6D2A715
:1010EB0030B32520B70620A103753A0420B706308C
:1010FB00A103753A0130B70620A103753A0230B748
:0C110B000A30A107753A0322753A04224D
:10119000E53A24FE601C14602B1460342403704074
:1011A000C280D282D283C285D2A4D2A5C2A6D2A73F
:1011B000802ED280C282C283D285D2A4D2A5D2A6EA
:1011C000C2A7801CD280C282D283C285C2A4800AF8
:1011D000C280C282C283C285D2A4D2A5D2A6D2A71F
:1011E00020A00620A303753A0320A00630A30375B0
:1011F0003A0230A00620A303753A0130A00630A3BE
:0512000003753A042211
:10120500E53A24FE601F14602E14603714604224F2
:1012150004704EC280D282D283C285D2A4D2A5C226
:10122500A6D2A7803CD280C282C283D285D2A4D264
:10123500A5D2A6C2A7802AD280C282D283C285C285
:10124500A4800AC280C282C283C285D2A4D2A580EC
:101255000CC280D282C283D285D2A4C2A5D2A6D224
:10126500A720A00620A30320B304753A0422753AEB
:02127500032252
:10158E00D2B5E4FFFE0FBF00010EEF64964E70F56C
:02159E00C2B5D4
:0115A0002228
:100F7F00E4F537F536F535F53412158EE4F58DF5C4
:100F8F008BE58DC394FA500330B4F6E58DD394FA04
:100F9F00506DE4F58DF58B20B4FDAF8DE48F37F5F3
:100FAF0036F535F534AE36AD35AC34FB7A01F9F89C
:100FBF00120D6F8F378E368D358C34AF8BE4FCFD71
:100FCF00FEE5372FF537EE3536F536ED3535F53598
:100FDF00EC3534F534AF37AE36AD35FCE47B11FA72
:100FEF00F9F8120D6F8F378E368D358C34E47B66A2
:0F0FFF007A56F9F8120DFA8F378E368D358C34FD
:01100E0022BF
:10143F00120F7FEFC3940A500CC280C282C283C2C4
:10144F0085D2A4800AD280C282D283C285C2A4D29E
:06145F00A5D2A6D2A722CF
:101465007FFF1215D47F031215D4E4FF1215D41291
:101475000F7F1215D47FFF1215D47FE87E037D0000
:051485007C000213EDE4
:10132000E53965386017E5396010C280C282C28332
:10133000C285D2A4D2A5D2A6D2A7853839E5382451
:10134000FE600D14600D14600D2403700C02109BE0
:0A13500002119002120512143F2250
:0813C4008F1D8E1C8D1B8C1A7D
:1013CC00781A74FF120E8EEC4D4E4F6013E4FAFB3C
:1013DC00C3EB941AEA940450E70BBB00010A80F0AB
:0113EC0022DE
:1014D800100A005A002D00430043005A005A003CED
:0614E800005A020800009A
:0813ED008F2F8E2E8D2D8C2C0C
:1013F500782C74FF120E8EEC4D4E4F6013E4FAFB01
:10140500C3EB941AEA940450E70BBB00010A80F081
:0114150022B4
:1015B2005389F0438901438EC043B802D28CD2A929
:0115C2002206
:1015C300D2AB53890F438910758DA9758B9AD28E2F
:0115D30022F5
:03000B000212DD01
:1012DD00C0E0C0F0C083C082C0D075D000C000C0D7
:1012ED0001C002C003C004C005C006C0073001051F
:1012FD001214168003120800D007D006D005D004B2
:10130D00D003D002D001D000D0D0D082D083D0F085
:03131D00D0E032EB
:03001B0002135A73
:09135A00C0E0C0D075D000C0064F
:10136300758DA9758B9A0509E509AE087002050804
:1013730014C394E8EE94034010750800750900E562
:091383001F6004B2878002D287CA
:07138C00D006D0D0D0E03202
:10154E004646303030313030464600464630303038
:06155E0032303046460069
:0314EE00011F00DB
:10151700438780759850759C70438E04438E0143B2
:0D1527008E10D2ACD2AFD299C2A8C2AA22B7
:0E15D400C2ACC2998F993099FDD299D2AC2247
:10153400ED4C6015120D44FF1215D4740129F9E421
:0A1544003AFAED1D70EA1C80E72260
:100A1D009000C8E06003020ABCA3E07003020AABB9
:100A2D0024FE603214605514606324036003020BCE
:100A3D00BED280C282D283C285C2A4D2A5D2A6D292
:100A4D00A77BFF7A15794E121579AC06AD077BFFA2
:100A5D007A15794E8023C280D282C283D285D2A4E8
:100A6D00C2A5D2A6D2A77BFF7A157959121579ACFA
:100A7D0006AD077BFF7A157959021534D280C282F3
:100A8D00C283D285D2A4D2A5D2A6C2A722C280D2B9
:100A9D0082D283C285D2A4D2A5C2A6D2A722C280F9
:100AAD00C282C283C285D2A4D2A5D2A6D2A72290D9
:100ABD0000C8E0FF64016003020B559000CAE0FE20
:100ACD00D394B44003020BBE9000C9E014B40800E7
:100ADD004003020BBE900AF075F003A4C58325F008
:100AED00C58373020B08020B0F020B19020B2302B5
:100AFD000B2D020B37020B41020B4BEE750A00F565
:100B0D000B229000CAE0750C00F50D229000CAE092
:100B1D00750E00F50F229000CAE0751000F5112238
:100B2D009000CAE0751200F513229000CAE075140A
:100B3D0000F515229000CAE0751600F517229000F9
:100B4D00CAE0751800F51922EFB450199000C9E0EC
:100B5D00FFC39405505BA3E0FEC3940A50538F2549
:100B6D008E26020BBF9000C8E0B45117A3E0FFC35F
:100B7D009405503DA3E0FEC3940A50358F258E2673
:100B8D00020EAC9000C8E0B41327A3E0601E24FE53
:100B9D00600E14600F14601024037012753801225A
:100BAD007538022275380322753804228000E4F569
:020BBD003822DC
:03002300021117B0
:10111700C0E0C0F0C083C082C0D075D000C000C09E
:0D11270001C002C003C004C005C006C0071F
:1011340030983CC298E51F700CE599F47033751F24
:1011440001F51E802CE599B4FF13751F00E51EB44C
:101154000306120A1D121517751E00801474C82583
:101164001EF582E43400F583E599F0051E8002C281
:0111740099E1
:10117500D007D006D005D004D003D002D001D000CE
:0B118500D0D0D082D083D0F0D0E03278
:10127700C2ACE4F53BF53CB2A4121393B2A512132A
:1012870093B2A6121393B2A7121393B287121393B2
:10129700B286121393053CE53C7002053BC39412DA
:1012A700E53B940040D1E4F53BF53CB2A4B2A5B2CE
:1012B700A6B2A7B287B2867FE87E03121397053CD2
:1012C700E53C7002053BC3940FE53B940040DCD23C
:0512D700A5D2A7D2869C
:0112DC0022EF
:081393007F5E7E017D007C00FD
:08139B008F338E328D318C304E
:1013A300783074FF120E8EEC4D4E4F6013E4FAFB4F
:1013B300C3EB941AEA940450E70BBB00010A80F0D4
:0113C3002207
:0314F100013D00BA
:10080000E53DB410004003020A12900811F82828B0
:100810007302084102085F02087C02089A0208B7C6
:100820000208D50208F202091002092D02094B0242
:1008300009680209860209A20209BF0209DB02094E
:10084000F8AE0AAF0B7C007DF5120D5DC374CD9F31
:10085000FB74D49EF58CAF038F8AD290020A12AE3D
:100860000AAF0B7C007DF5120D5DEF2433FBEE34F7
:1008700053F58CAF038F8AC290020A12AE0CAF0DF3
:100880007C007DF5120D5DC374CD9FFB74D49EF585
:100890008CAF038F8AD291020A12AE0CAF0D7C008E
:1008A0007DF5120D5DEF2433FBEE3453F58CAF0371
:1008B0008F8AC291020A12AE0EAF0F7C007DF51234
:1008C0000D5DC374CD9FFB74D49EF58CAF038F8AEE
:1008D000D292020A12AE0EAF0F7C007DF5120D5DB2
:1008E000EF2433FBEE3453F58CAF038F8AC29202B0
:1008F0000A12AE10AF117C007DF5120D5DC374CDF0
:100900009FFB74D49EF58CAF038F8AD293020A1298
:10091000AE10AF117C007DF5120D5DEF2433FBEEC0
:100920003453F58CAF038F8AC293020A12AE12AF12
:10093000137C007DF5120D5DC374CD9FFB74D49EB6
:10094000F58CAF038F8AD294020A12AE12AF137CD9
:10095000007DF5120D5DEF2433FBEE3453F58CAFC3
:10096000038F8AC294020A12AE14AF157C007DF583
:10097000120D5DC374CD9FFB74D49EF58CAF038FB5
:100980008AD295020A12AE14AF157C007DF5120DC5
:100990005DEF2433FBEE3453F58CAF038F8AC295A1
:1009A0008070AE16AF177C007DF5120D5DC374CD5F
:1009B0009FFB74D49EF58CAF038F8AD2968053AE82
:1009C00016AF177C007DF5120D5DEF2433FBEE347E
:1009D00053F58CAF038F8AC2968037AE18AF197C5F
:1009E000007DF5120D5DC374CD9FFB74D49EF58C14
:1009F000AF038F8AD297801AAE18AF197C007DF5AD
:100A0000120D5DEF2433FBEE3453F58CAF038F8A68
:0C0A1000C297053DE53DB41003E4F53D40
:010A1C0022B7
:100BBF00D2A4D2A5D2A6D2A7D287D286C200C2A271
:100BCF00C2A4D2A5E4F529F52AF52BD2B220B2FDA5
:100BDF00D201538EBFE4F58DF58B758CA9758A9A6A
:100BEF00C3E52B94C8E52A94005056E4F58DF58B98
:100BFF0030B2FDAF29052974002FF582E43400F5DA
:100C0F0083E58BF0AF29052974002FF582E43400BA
:100C1F00F583E58DF0E4F58DF58B20B2FDAF290559
:100C2F002974002FF582E43400F583E58BF0AF29AA
:100C3F00052974002FF582E43400F583E58DF080EB
:100C4F009FE4F529E529C394C84003020CFA740107
:100C5F002529F582E43400F583E0FE74002529F59B
:100C6F0082E43400F583E07C002400FFEC3ECF24C7
:100C7F004CCF34FF7521008F22F5247523007400AB
:100C8F002529F582E43400F583EFF074012529F569
:100C9F0082E43400F583E524F074032529F582E41A
:100CAF003400F583E0FE74022529F582E43400F563
:100CBF0083E02400FFEC3ECF248CCF34007521005D
:100CCF008F22F52475230074022529F582E4340060
:100CDF00F583EFF074032529F582E43400F583E5FD
:100CEF0024F074042529F529020C53E52575F00A23
:100CFF00A47C002526FFEF75280025E0F527AF28F7
:100D0F00FE1214F5E4F5297E00E5282529FFEE35BE
:100D1F0027FE74002529F582E43400F583E0FD12E7
:100D2F0014AE0529E529C394C840DCD2A4C2A5C2DC
:050D3F0001438E40227B
:100EAC00D2A7C287D286D201538EBFD200E5257558
:100EBC00F00AA47C002526FFEF75280025E0F52715
:100ECC00E4F5297E00E5282529FFEE3527FE1214CE
:100EDC008A74002529F582E43400F583EFF00529A6
:100EEC00E529C394C840DC758CFF758A05E4F529A7
:100EFC00F52AF52BC3E52B9460E52A943B5068E466
:100F0C00F58DF58B74002529F582E43400F583E02A
:100F1C00FFE58BC39F401374012529F582E434004F
:100F2C00F583E0FFE58DC39F5004D20280D60529DE
:100F3C000529E4F58DF58B74002529F582E4340040
:100F4C00F583E0FFE58BC39F401374012529F582DF
:100F5C00E43400F583E0FFE58DC39F5004C20280AA
:100F6C00D605290529808DC201438E40C2A7D287A0
:030F7C00C2862208
:1014160020000F758CA9758A9A052BE52B70190586
:101426002A22758CFF758A05052BE52B7002052A85
:09143600300203B2A222C2A2227C
:10148A00AD07AC068CC3EDF5C453C5F843C501538B
:10149A00C71843C70243C78075C65A75C6A553C73E
:0414AA007FAFC2222C
:1014AE00AB07AA068AC3EBF5C453C5F843C5028D34
:1014BE00C253C71843C70243C78075C65A75C6A51F
:0414CE0053C77F225F
:1014F500AD07AC068CC3EDF5C453C5F843C503531E
:10150500C71843C70143C78075C65A75C6A553C7D3
:021515007F2233
:0300000002100FDC
:0C100F00787FE4F6D8FD75813D02105694
:100D4400BB010689828A83E0225002E722BBFE02AD
:090D5400E32289828A83E49322E0
:100D5D00EF8DF0A4A8F0CF8CF0A428CE8DF0A42EAA
:020D6D00FE2264
:100D6F00E88FF0A4CC8BF0A42CFCE98EF0A42CFC23
:100D7F008AF0EDA42CFCEA8EF0A4CDA8F08BF0A4A1
:100D8F002DCC3825F0FDE98FF0A42CCD35F0FCEB00
:100D9F008EF0A4FEA9F0EB8FF0A4CFC5F02ECD39C5
:0F0DAF00FEE43CFCEAA42DCE35F0FDE43CFC2232
:100DBE0075F008758200EF2FFFEE33FECD33CDCCEC
:100DCE0033CCC58233C5829BED9AEC99E58298406F
:100DDE000CF582EE9BFEED9AFDEC99FC0FD5F0D64C
:100DEE00E4CEFBE4CDFAE4CCF9A88222B800C1B976
:100DFE000059BA002DEC8BF084CFCECDFCE5F0CBB4
:100E0E00F97818EF2FFFEE33FEED33FDEC33FCEBEC
:100E1E0033FB10D703994004EB99FB0FD8E5E4F9A7
:100E2E00FA227818EF2FFFEE33FEED33FDEC33FC94
:100E3E00C933C910D7059BE99A4007EC9BFCE99A88
:100E4E00F90FD8E0E4C9FAE4CCFB2275F010EF2FCD
:100E5E00FFEE33FEED33FDCC33CCC833C810D707CD
:100E6E009BEC9AE899400AED9BFDEC9AFCE899F808
:0E0E7E000FD5F0DAE4CDFBE4CCFAE4C8F9229B
:100E8C007401FF3395E0FEFDFC080808E6CF2FF651
:100E9C0018E6CE3EF618E6CD3DF618E6CC3CF6222A
:10157900E4FFFE120D44600C0FEF70010E09E970D3
:05158900F20A80EF22D0
:10101B000215A1E493A3F8E493A34003F68001F235
:10102B0008DFF48029E493A3F85407240CC8C333D6
:10103B00C4540F4420C8834004F456800146F6DFA5
:10104B00E4800B01020408102040809014D2E47E4F
:10105B00019360BCA3FF543F30E509541FFEE4939A
:10106B00A360010ECF54C025E060A840B8E493A361
:10107B00FAE493A3F8E493A3C8C582C8CAC583CA8C
:10108B00F0A3C8C582C8CAC583CADFE9DEE780BE44
:0114F40000F7
:00000001FF
