:0D000E00554152545F696E6974204F4B00DC
:100D9400120B5C120F77120FFC120FAE7BFF7A005E
:100DA400790E120FC3AD077BFF7A00790E120F94F0
:100DB400120003120D60120BC290010EEFF0120D1F
:030DC4002980F093
:060E9C00014800014900BD
:100FAE00D281D284C280C282C283C285D2A4D2A58B
:050FBE00D2A6D2A7221B
:10099B00E54A24FE601C14602B1460342403704061
:1009AB00C280D282D283C285D2A4D2A5C2A6D2A73C
:1009BB00802ED280C282C283D285D2A4D2A5D2A6E7
:1009CB00C2A7801CD280C282D283C285C2A4800AF5
:1009DB00C280C282C283C285D2A4D2A5D2A6D2A71C
:1009EB0020B70620A303754A0320B70630A303756F
:1009FB004A0230B70620A303754A0130B70630A36D
:050A0B0003754A0422FE
:100A1000E54A24FE601F14602E14603714604224DF
:100A200004704EC280D282D283C285D2A4D2A5C223
:100A3000A6D2A7803CD280C282C283D285D2A4D261
:100A4000A5D2A6C2A7802AD280C282D283C285C282
:100A5000A4800AC280C282C283C285D2A4D2A580E9
:100A60000CC280D282C283D285D2A4C2A5D2A6D221
:100A7000A720B70620A30320B604754A0422754AAE
:020A800003224F
:100FD800D2B5E4FFFE0FBF00010EEF64964E70F528
:030FE800C2B5226D
:10080200E4F541F540F53FF53E120FD8E4F58DF5DC
:100812008BE58DC394FA500330B4F6E58DD394FA88
:10082200506EE4F58DF58B20B4FDAF8DE48F41F56C
:1008320040F53FF53EAE40AD3FAC3EFB7A01F9F8E4
:100842001205F28F418E408D3F8C3EAF8BE4FCFD52
:10085200FEE5412FF541EE3540F540ED353FF53FE0
:10086200EC353EF53EAF41AE40AD3FFCE47B11FAC4
:10087200F9F81205F28F418E408D3F8C3EE47B6683
:100882007A56F9F812067D8F418E408D3F8C3E22BA
:04089200E541FF221B
:100DF800120EE8120802EFC3940A500CC280C28295
:100E0800C283C285D2A4800AD280C282D283C2851C
:090E1800C2A4D2A5D2A6D2A722E1
:100EE8007FFF12100D7F0312100DE4FF12100D1278
:100EF800080212100D7FFF12100D7FE87E037D009F
:050F08007C00020E4A0E
:100D6000E54965486017E5496010C280C282C283C8
:100D7000C285D2A4D2A5D2A6D2A7854849E54824E7
:100D8000FD600A14600A2402700902099B020A101D
:040D9000120DF82226
:100E21008F478E468D458C44784474FF120711EC30
:100E31004D4E4F6013E4FAFBC3EB941AEA9404504D
:090E4100E70BBB00010A80F0225E
:100EA2001023005A002D00430043005A005A003C10
:060EB200005A02210000BD
:100E4A008F418E408D3F8C3E783E74FF120711EC25
:100E5A004D4E4F6013E4FAFBC3EB941AEA94045024
:090E6A00E70BBB00010A80F02235
:100FEB005389F0438901438EC043B802D28CD2A9F6
:010FFB0022D3
:100FFC00D2AB53890F438910758DA9758B9AD28EFC
:01100C0022C1
:03001B00020CB91B
:100CB900C0E0C0D075D000C006758DA9758B9A05A6
:100CC90022E522AE217002052114C394E8EE9403B3
:100CD9004010752100752200E54C6004B28780023E
:090CE900D287D006D0D0D0E03251
:100EC20046463030303130304646004646303030CB
:100ED20032303046460049535F434F4E310049534A
:060EE2005F434F4E30009B
:030EB800014C00EA
:100F7700438780759850759C70438E04438E014358
:0D0F87008E10D2ACD2AFD299C2A8C2AA225D
:0E100D00C2ACC2998F993099FDD299D2AC2213
:100F9400ED4C60151205C7FF12100D740129F9E418
:0A0FA4003AFAED1D70EA1C80E72206
:1002430090010BE060030202E3A3E070030202D219
:1002530024FE6033146056146064240360030204B4
:1002630041D280C282D283C285C2A4D2A5D2A6D2F1
:10027300A77BFF7A0E79C2120FC3AC06AD077BFFD3
:100283007A0E79C202040BC280D282C283D285D293
:10029300A4C2A5D2A6D2A77BFF7A0E79CD120FC333
:1002A300AC06AD077BFF7A0E79CD02040BD280C278
:1002B30082C283D285D2A4D2A5D2A6C2A722C280EB
:1002C300D282D283C285D2A4D2A5C2A6D2A722C289
:1002D30080C282C283C285D2A4D2A5D2A6D2A722CB
:1002E30090010BE0FF6401600302037C90010DE0C9
:1002F300FED394B4400302044190010CE014B4080B
:1003030000400302044190031775F003A4C583253D
:10031300F0C5837302032F02033602034002034A2C
:1003230002035402035E020368020372EE752300A4
:10033300F5242290010DE0752500F5262290010D8C
:10034300E0752700F5282290010DE0752900F52AB4
:100353002290010DE0752B00F52C2290010DE07524
:100363002D00F52E2290010DE0752F00F53022901F
:10037300010DE0753100F53222EFB4501F90010CEE
:10038300E0FFC394054003020441A3E0FEC3940AC3
:1003930040030204418F378E3802044290010BE080
:1003A300B4511DA3E0FFC394054003020441A3E03D
:1003B300FEC3940A40030204418F378E3802072F8D
:1003C30090010BE064137076A3E0601E24FE600EC0
:1003D30014600F146010240370617548012275487E
:1003E30002227548032275480422E4F54890010D62
:1003F300E07018D2007BFF7A0E79D8120FC3AC06D7
:10040300AD077BFF7A0E79D8020F9490010DE0645B
:1004130001702BC2007BFF7A0E79E0120FC3AC068A
:10042300AD077BFF7A0E79E0120F94758900758E04
:0F0433000075B800C28CC2A9020003E4F548228C
:03002300020922AD
:10092200C0E0C0F0C083C082C0D075D000C000C09B
:1009320001C002C003C004C005C006C00730983C15
:10094200C298E54C700CE599F47033754C01F54B87
:10095200802CE599B4FF13754C00E54BB4030612E5
:100962000243120F77754B008014740B254BF582EE
:10097200E43401F583E599F0054B8002C299D00772
:10098200D006D005D004D003D002D001D000D0D000
:09099200D082D083D0F0D0E03215
:100B5C00C2ACE4F53EF53FB2A4120DC7B2A5120D1E
:100B6C00C7B2A6120DC7B2A7120DC7B287120DC716
:100B7C00B286120DC7053FE53F7002053EC39412C5
:100B8C00E53E940040D1E4F53EF53FB2A4B2A5B2E7
:100B9C00A6B2A7B287B2867FE87E03120DCB053FC3
:100BAC00E53F7002053EC3940FE53E940040DCD255
:060BBC00A5D2A7D286229B
:080DC7007F5E7E017D007C00CF
:100DCF008F438E428D418C40784074FF120711EC97
:100DDF004D4E4F6013E4FAFBC3EB941AEA940450A0
:090DEF00E70BBB00010A80F022B1
:030EBB000108002B
:100C2600E509D39401400BE50E13F50E30A10343FD
:100C36000E801509E50964017031D204D203E5146A
:100C4600C39420502674C82516F582E43400F58333
:100C5600E50EF00516E516D3941F4003E4F51605D8
:0C0C660014E514D39420400375142022E0
:100C7200E50A601CB40B04C2A08012E50AD39402F8
:100C82004009E50F13F50F92A08002D2A0150A22A7
:100C9200E515D39400401F151574EB2517F582E472
:100CA2003400F583E0F50F0517E517C394204003E0
:070CB200E4F517750A0B229F
:03000B00020AF3F3
:100AF300C0E0C0F0C083C082C0D075D01830000EF3
:100B0300120FEB300105120E738003120026E50964
:100B1300701620A10B200308300405750909F5138D
:100B2300A2039204A2A192030513C3E51364809464
:100B330083400AE5096006751300120C260512C3EB
:100B4300E512648094834006751200120C72D0D0B3
:090B5300D082D083D0F0D0E03252
:100CF200758CC0758AC0D28CE4F516F514F517F51B
:100D020015F50AF5095389F0438902D2A1D204D21A
:100D120003D2A0F50BF50CF510F511D2B9D2AFD272
:070D2200A943A882D28C2234
:06000300120CF2D2AF2244
:100D2900E515C3942050F974EB250CF582E43400E1
:100D3900F583EFF0050CE50C7002050BD3941FE564
:100D49000B94004005E4F50BF50C0515E515D39456
:070D59002040037515202264
:100A82009000E8E0FF64307061A3E024D0604A2463
:100A9200FE601614602114602F24037053D280C2AA
:100AA20082D283C285C2A4803AC280D282C283D259
:100AB20085D2A4C2A5802ED280C282C283D285D220
:100AC200A4D2A5D2A6C2A722C280D282D283C285D4
:100AD200D2A4D2A5C2A6D2A722C280C282C283C297
:100AE20085D2A4D2A5D2A6D2A722EFB43302D200D5
:010AF20022E1
:100BC200E4FEE51460FC74C82511F582E43400F5F6
:100BD20083E0FEE508700CEE64467029750801F5A5
:100BE2000D8022BE4610E4F508E50DB40303120A97
:100BF20082E4F50D800F74E8250DF582E43400F5EA
:100C020083EEF0050DC3E511941FE5109400500A20
:100C12000511E511700905108005E4F510F51115AF
:040C220014AF0622E3
:030EBE00014D00E3
:10002600E54DB410004003020238900037F8282846
:10003600730200670200850200A20200C00200DD12
:100046000200FB020118020136020153020171028D
:10005600018E0201AC0201C80201E50202010202A0
:100066001EAE23AF247C007DF51205E0C374CD9F40
:10007600FB74D49EF58CAF038F8AD290020238AE01
:1000860023AF247C007DF51205E0EF2433FBEE342C
:1000960053F58CAF038F8AC290020238AE25AF2685
:1000A6007C007DF51205E0C374CD9FFB74D49EF5EC
:1000B6008CAF038F8AD291020238AE25AF267C0020
:1000C6007DF51205E0EF2433FBEE3453F58CAF03D8
:1000D6008F8AC291020238AE27AF287C007DF512C6
:1000E60005E0C374CD9FFB74D49EF58CAF038F8A55
:1000F600D292020238AE27AF287C007DF51205E0C9
:10010600EF2433FBEE3453F58CAF038F8AC2920291
:100116000238AE29AF2A7C007DF51205E0C374CD06
:100126009FFB74D49EF58CAF038F8AD2930202385C
:10013600AE29AF2A7C007DF51205E0EF2433FBEEF5
:100146003453F58CAF038F8AC293020238AE2BAFBD
:100156002C7C007DF51205E0C374CD9FFB74D49E04
:10016600F58CAF038F8AD294020238AE2BAF2C7C6B
:10017600007DF51205E0EF2433FBEE3453F58CAF2A
:10018600038F8AC294020238AE2DAF2E7C007DF515
:100196001205E0C374CD9FFB74D49EF58CAF038F1C
:1001A6008AD295020238AE2DAF2E7C007DF512055F
:1001B600E0EF2433FBEE3453F58CAF038F8AC29500
:1001C6008070AE2FAF307C007DF51205E0C374CD94
:1001D6009FFB74D49EF58CAF038F8AD2968053AE64
:1001E6002FAF307C007DF51205E0EF2433FBEE34B3
:1001F60053F58CAF038F8AC2968037AE31AF327C0F
:10020600007DF51205E0C374CD9FFB74D49EF58C7A
:10021600AF038F8AD297801AAE31AF327C007DF55C
:100226001205E0EF2433FBEE3453F58CAF038F8ACF
:0C023600C297054DE54DB41003E4F54DF2
:010242002299
:10044200D2A4D2A5D2A6D2A7D287D286C200C2A2F5
:10045200C2A4D2A5E4F53BF53CF53DD2B220B2FDF3
:10046200D201538EBFE4F58DF58B758CA9758A9AEE
:10047200C3E53D94C8E53C94005056E4F58DF58BF8
:1004820030B2FDAF3B053B74002FF582E43400F53A
:1004920083E58BF0AF3B053B74002FF582E434001B
:1004A200F583E58DF0E4F58DF58B20B2FDAF3B05CC
:1004B2003B74002FF582E43400F583E58BF0AF3B0B
:1004C200053B74002FF582E43400F583E58DF0805E
:1004D2009FE4F53BE53BC394C8400302057D7401EC
:1004E200253BF582E43400F583E0FE7400253BF5FC
:1004F20082E43400F583E07C002400FFEC3ECF244C
:100502004CCF34FF7533008F34F5367535007400E7
:10051200253BF582E43400F583EFF07401253BF5C9
:1005220082E43400F583E536F07403253BF582E47A
:100532003400F583E0FE7402253BF582E43400F5D5
:1005420083E02400FFEC3ECF248CCF3400753300CF
:100552008F34F5367535007402253BF582E434009C
:10056200F583EFF07403253BF582E43400F583E56F
:1005720036F07404253BF53B0204D6E53775F00AE4
:10058200A47C002538FFEF753A0025E0F539AF3A33
:10059200FE120F55E4F53B7E00E53A253BFFEE35B2
:1005A20039FE7400253BF582E43400F583E0FD1248
:1005B2000F31053BE53BC394C840DCD2A4C2A5C2BF
:0505C20001438E402200
:10072F00D2A7C287D286D201538EBFD200E53775CA
:10073F00F00AA47C002538FFEF753A0025E0F53963
:10074F00E4F53B7E00E53A253BFFEE3539FE120F0F
:10075F000D7400253BF582E43400F583EFF0053B83
:10076F00E53BC394C840DC758CFF758A05E4F53B07
:10077F00F53CF53DC3E53D9460E53C943B5068E4A2
:10078F00F58DF58B7400253BF582E43400F583E09D
:10079F00FFE58BC39F40137401253BF582E43400C2
:1007AF00F583E0FFE58DC39F5004D20280D6053B51
:1007BF00053BE4F58DF58B7400253BF582E43400A1
:1007CF00F583E0FFE58BC39F40137401253BF58252
:1007DF00E43400F583E0FFE58DC39F5004C202802F
:1007EF00D6053B053B808DC201438E40C2A7D28701
:0307FF00C286228D
:100E730020000F758CA9758A9A053DE53D7019050B
:100E83003C22758CFF758A05053DE53D7002053CE6
:090E9300300203B2A222C2A22225
:100F0D00AD07AC068CC3EDF5C453C5F843C501530D
:100F1D00C71843C70243C78075C65A75C6A553C7C0
:040F2D007FAFC222AE
:100F3100AB07AA068AC3EBF5C453C5F843C5028DB6
:100F4100C253C71843C70243C78075C65A75C6A5A1
:040F510053C77F22E1
:100F5500AD07AC068CC3EDF5C453C5F843C50353C3
:100F6500C71843C70143C78075C65A75C6A553C779
:020F75007F22D9
:030000000208965D
:0C089600787FE4F6D8FD75814D0208DD86
:1005C700BB010689828A83E0225002E722BBFE0232
:0905D700E32289828A83E4932265
:1005E000EF8DF0A4A8F0CF8CF0A428CE8DF0A42E2F
:0205F000FE22E9
:1005F200E88FF0A4CC8BF0A42CFCE98EF0A42CFCA8
:100602008AF0EDA42CFCEA8EF0A4CDA8F08BF0A425
:100612002DCC3825F0FDE98FF0A42CCD35F0FCEB84
:100622008EF0A4FEA9F0EB8FF0A4CFC5F02ECD3949
:0F063200FEE43CFCEAA42DCE35F0FDE43CFC22B6
:1006410075F008758200EF2FFFEE33FECD33CDCC70
:1006510033CCC58233C5829BED9AEC99E5829840F3
:100661000CF582EE9BFEED9AFDEC99FC0FD5F0D6D0
:10067100E4CEFBE4CDFAE4CCF9A88222B800C1B9FA
:100681000059BA002DEC8BF084CFCECDFCE5F0CB38
:10069100F97818EF2FFFEE33FEED33FDEC33FCEB71
:1006A10033FB10D703994004EB99FB0FD8E5E4F92C
:1006B100FA227818EF2FFFEE33FEED33FDEC33FC19
:1006C100C933C910D7059BE99A4007EC9BFCE99A0D
:1006D100F90FD8E0E4C9FAE4CCFB2275F010EF2F52
:1006E100FFEE33FEED33FDCC33CCC833C810D70752
:1006F1009BEC9AE899400AED9BFDEC9AFCE899F88D
:0E0701000FD5F0DAE4CDFBE4CCFAE4C8F9221F
:10070F007401FF3395E0FEFDFC080808E6CF2FF6D5
:10071F0018E6CE3EF618E6CD3DF618E6CC3CF622AE
:100FC300E4FFFE1205C7600C0FEF70010E09E97014
:050FD300F20A80EF228C
:1008A200020D94E493A3F8E493A34003F68001F2CB
:1008B20008DFF48029E493A3F85407240CC8C33357
:1008C200C4540F4420C8834004F456800146F6DF26
:1008D200E4800B0102040810204080900E9CE47E0C
:1008E200019360BCA3FF543F30E509541FFEE4931B
:1008F200A360010ECF54C025E060A840B8E493A3E2
:10090200FAE493A3F8E493A3C8C582C8CAC583CA0C
:10091200F0A3C8C582C8CAC583CADFE9DEE780BEC4
:010EC1000030
:00000001FF
